:020000040800F2
:100000006006002081020008890200088B020008B7
:100010008D0200088F020008910200080000000015
:100020000000000000000000000000009302000833
:1000300095020008000000009702000899020008DD
:100040009B0200089B0200089B0200089B0200081C
:100050009B0200089B0200089B0200089B0200080C
:100060009B0200089B0200089B0200089B020008FC
:100070009B0200089B0200089B0200089B020008EC
:100080009B0200089B0200089B0200089B020008DC
:100090009B0200089B0200089B0200089B020008CC
:1000A0009B0200089B0200089B0200089B020008BC
:1000B0009B0200089B0200089B0200089B020008AC
:1000C0009B0200089B0200089B0200089B0200089C
:1000D0009B0200089B0200089B0200089B0200088C
:1000E0009B0200089B0200089B0200089B0200087C
:1000F0009B0200089B0200089B0200089B0200086C
:100100009B0200089B0200089B0200089B0200085B
:100110009B0200089B0200089B0200089B0200084B
:100120009B0200089B0200089B0200089B0200083B
:100130009B02000800000000000000009B02000875
:100140009B0200089B0200089B0200089B0200081B
:100150009B0200089B0200089B0200089B0200080B
:100160009B0200089B0200089B0200089B020008FB
:100170009B0200089B0200089B0200080000000090
:10018000000000009B0200080000000000000000CA
:100190009B02000800000000000000009B02000815
:1001A0000000000000000000000000009B020008AA
:1001B0009B0200089B0200089B0200089B020008AB
:1001C0009B02000800F002F800F048F814A696E838
:1001D000000CB244B344DA4501D100F03FF8BAE86C
:1001E0000F000FA696E83000A5EB040504EB060708
:1001F000AAEB0704A7F101074FEA15154FEA3414DB
:10020000A4F10104AC4201D300F028F813F0010F6F
:1002100018BFFB1A43F0010300F001F8DBE71847B1
:1002200070030000800300007047000000230024DA
:1002300000250026103A28BF78C1FBD8520728BFF6
:1002400030C148BF0B6070471FB500F093F90FBC79
:1002500000F014F80FB41FBD10B510BD00F033F856
:100260001146FFF7F1FF00F075F900F051F803B403
:10027000FFF7F2FF03BC00F059F8000000F06DB882
:100280000948804709480047FEE7FEE7FEE7FEE72A
:10029000FEE7FEE7FEE7FEE7FEE7FEE70448054966
:1002A000054A064B704700002D050008C5010008EF
:1002B0006000002060060020600200206002002034
:1002C000704770477047754600F02CF8AE46050041
:1002D0006946534620F00700854618B020B5FFF761
:1002E000DDFFBDE820404FF000064FF000074FF063
:1002F00000084FF0000BAC46ACE8C009ACE8C00900
:10030000ACE8C009ACE8C00921F007018D46704790
:1003100010B50446AFF300802046BDE81040FFF75B
:10032000A6BF0000004870470000002001491820C7
:10033000ABBEFEE7260002000246C91C21F0030105
:10034000D2E900031B1A8B4201D2002070470144FE
:10035000C91D21F00701116070472DE9F34F83B0EB
:1003600000274FF48074BA4603A821468DF8007028
:10037000FFF7E2FF5FEA000801D100F083F82146B1
:10038000404600F070F8060009D04FF0010B4546DA
:10039000C14616F8014B8FB15C2C16D01CE008F159
:1003A00008004146C8F800000020C8F80400D8F84A
:1003B00000402070012005B0BDE8F08F222C01D054
:1003C000272C0FD12746BA462CE03078222807D0B8
:1003D0005C2805D0272803D0BC4203D1002721E0A8
:1003E000761C04464CB12FB9202C06D0A4F109008C
:1003F000042802D905F8014BCBE74D4502D1BAF1EB
:10040000000F0FD052464946002005F8010B684600
:10041000AFF300809DF8000070B14D464FF0000A28
:100420000BF1010B002CB4D14FEA8B0103A8FFF7AD
:1004300083FF040002D004E0A946EFE7002000F0AB
:1004400021F800204246C4F8008005E012F8011BA4
:1004500011B9401C44F82020AA42F7D3002144F8E7
:1004600020102146A7E71CB50446CDE900016946E6
:100470001520ABBE08B100201CBD20461CBD704736
:100480007047704710B500F009F8BDE81040AFF3B1
:100490000080002801D0FFF749BF704710B5012840
:1004A00005D0002103A000F021F8012010BD09A112
:1004B000F8E7000053494752544D454D3A204F75D7
:1004C00074206F662068656170206D656D6F72794C
:1004D000000000003A2048656170206D656D6F7204
:1004E0007920636F727275707465640070B505462B
:1004F0000C460A2000E06D1C00F011F835B1287898
:100500000028F8D102E0641C00F009F814B120784A
:100510000028F8D1BDE870400A20AFF3008008B58C
:1005200069468DF800000320ABBE08BD4EF6885129
:10053000CEF20001086840F47000086070470000C7
:1005400002000000400000000A0000000600000059
:100550000800000006484FF0040150F8042B50F842
:10056000043B934258BF1A460139F8D1FFE7FEE732
:1005700040050008F1EE100A4FF6FF71C0F2C031DD
:1005800020EA010040F04070E1EE100A70470000E0
:10059000A005000800000020600600002C020008F2
:04000005080002816C
:00000001FF
